:100000000C9466010C9487010C9487010C94870171
:100010000C9487010C9487010C9487010C94870140
:100020000C9487010C9487010C9487010C94870130
:100030000C9487010C9487010C9487010C94870120
:100040000C9487010C9487010C9487010C94870110
:100050000C9487010C9487010C9487010C94500434
:100060000C9487010C9487010C9487010C948701F0
:100070000C9487010C9487010C9487010C948701E0
:100080000C9487010C9487010C9487010C948701D0
:100090000C9487010C9487010C9487010C948701C0
:1000A0000C9487010C9487010C9487010C948701B0
:1000B0000C9487010C9487010C9487010C948701A0
:1000C0000C9487010C9487010C9487010C94870190
:1000D0000C9487010C9487010C9487010C94870180
:1000E0000C9487010C9475060C942E030C94420713
:1000F0000C945B030C94DC070C94E4050C94320321
:100100000C94D6050C944A080C9432060C94EA051B
:100110000C94D8080C941A070C94F8080C94570304
:100120000C94ED050C9465030C94DE050C943603D9
:100130000C942D070C94CA090C9424030C946A089F
:100140000C9464090C9451030C9464030C940707F9
:100150000C942D090C9439030C94C0090C9443039E
:100160000C94AF090C94E1050C9469030C943F03C3
:100170000C9449030C940D080C94E7050C942A0385
:100180000C944D030C9457070C94B6090C94D905A4
:100190000C945F030C9481070C94B9070C948E099E
:1001A0000C94D9070C94A9050C949B08000021001D
:1001B000240027002A002D00300033000101000038
:1001C000040107010A0100002200250028002B007D
:1001D0002E003100340002010000050108010B016E
:1001E000000020002300260029002C002F003200F0
:1001F00000010000030106010901050505050705C9
:1002000008080808020202020A0A08080404040492
:1002100001010101010101010303030303030303BE
:10022000040707070C0C0C0C0C0C0C0C020202024D
:1002300006060606060606060B0B0B0B0B0B0B0B36
:1002400001021020200808102040102040800201E8
:1002500002010804020101020408102040808040CD
:1002600020100804020180040201804020100804CC
:10027000020108040201010204081020408001026A
:1002800004081020408000000A0B02090C0D0E0823
:10029000070304010000000000000000000000004F
:1002A000000000000000000000000000000000004E
:1002B000000012111000000000000000000000000B
:1002C00000000000000000000000000011241FBE1C
:1002D000CFEFD1E2DEBFCDBF00E00CBF12E0A0E067
:1002E000B2E0E2E1F4E100E00BBF02C007900D9242
:1002F000A034B107D9F722E0A0E4B2E001C01D921A
:10030000A736B207E1F70E949A040C94070A0C94EE
:10031000000083309105D9F41092500210924F02E0
:1003200081E090E090935202809351021092540227
:1003300010925302909356028093550210925802E5
:100340001092570210925A02109259021DC0843026
:10035000910599F581E090E09093500280934F02CF
:1003600010925202109251021092540210925302B3
:100370001092560210925502109258021092570293
:1003800090935A028093590290935C0280935B028F
:1003900010925E0210925D021092600210925F0253
:1003A0009093620280936102109264021092630241
:1003B0001092660210926502089585309105B9F495
:1003C00081E090E09093500280934F02109252028D
:1003D000109251021092540210925302109256023F
:1003E000109255029093580280935702ABCF8630FB
:1003F000910539F581E090E09093500280934F028F
:100400001092520210925102109254021092530212
:100410009093560280935502109258021092570200
:1004200010925A021092590210925C0210925B02D2
:1004300010925E0210925D029093600280935F02C0
:10044000AFCF8730910519F581E090E0909350028D
:1004500080934F0210925202109251021092540255
:1004600010925302909356028093550210925802B4
:100470001092570210925A021092590210925C0286
:1004800010925B0290935E0280935D0285CF88306C
:10049000910599F581E090E09093500280934F028E
:1004A0001092520210925102109254021092530272
:1004B0009093560280935502109258021092570260
:1004C00010925A021092590290935C0280935B0240
:1004D00010925E0210925D021092600210925F0212
:1004E00010926202109261021092640210926302F2
:1004F00090936602809365020895099709F05CCF96
:1005000081E090E09093500280934F02109252024B
:10051000109251021092540210925302909356027C
:1005200080935502109258021092570210925A026C
:100530001092590290935C0280935B0210925E02CB
:1005400010925D021092600210925F02109262029D
:1005500010926102909364028093630229CF0F93FB
:100560001F93CF93DF930197F1F4C8E2D2E0EFE459
:10057000F2E023E030E001E010E089919991B901C7
:100580000E94D709892B61F411830083329682E09F
:10059000C034D80791F7DF91CF911F910F91089543
:1005A00011821082F3CF1092500210924F021092DB
:1005B00052021092510281E090E090935402809395
:1005C0005302909356028093550210925802109253
:1005D000570210925A021092590290935C02809333
:1005E0005B0210925E0210925D0210926002109205
:1005F0005F029093620280936102109264021092F3
:1006000063021092660210926502C5CF815082315A
:1006100008F05AC0E82FF0E08827EE5EFC4F8F4FBD
:100620000C94EB093203360324032A032E036403DC
:1006300039033F03430349034D03510357035B034E
:1006400064035F0365036903809180008F77809363
:1006500080000895809180008F7DF9CF8091800087
:10066000877FF5CF84B58F7784BD089584B58F7D5E
:10067000FBCF8091B0008F778093B0000895809178
:10068000B0008F7DF9CF809190008F77809390009C
:100690000895809190008F7DF9CF80919000877FA1
:1006A000F5CF8091A0008F778093A000089580916E
:1006B000A0008F7DF9CF8091A000877FF5CF80913A
:1006C00020018F77809320010895809120018F7DF4
:1006D000F9CF80912001877FF5CFCF93DF93282F2B
:1006E00030E0F901EA57FD4F8491F901E05CFD4FDC
:1006F000D491F901E650FE4FC491CC23A1F08111B1
:100700000E940603EC2FF0E0EE0FFF1FE052FE4FB9
:10071000A591B491EC91ED2381E090E009F480E0A3
:10072000DF91CF91089580E090E0FACF1F93CF93AF
:10073000DF93282F30E0F901EA57FD4F8491F9014A
:10074000E05CFD4FD491F901E650FE4FC491CC23FB
:10075000A9F0162F81110E940603EC2FF0E0EE0F96
:10076000FF1FEA53FE4FA591B4918FB7F894EC9117
:10077000111108C0D095DE23DC938FBFDF91CF919C
:100780001F910895DE2BF8CFCF93DF9390E0FC010B
:10079000E05CFD4F249186509E4FFC01849188239C
:1007A000D1F090E0880F991FFC01E455FE4FA59110
:1007B000B491FC01EA53FE4FC591D49161110EC072
:1007C0009FB7F8948C91E22FE0958E238C9328812B
:1007D000E223E8839FBFDF91CF9108958FB7F8940C
:1007E000EC91E22BEC938FBFF6CF3FB7F89480915A
:1007F000450290914602A0914702B091480226B569
:10080000A89B05C02F3F19F00196A11DB11D3FBF48
:10081000BA2FA92F982F8827BC01CD01620F711D17
:10082000811D911D42E0660F771F881F991F4A9511
:10083000D1F708958F929F92AF92BF92CF92DF929D
:10084000EF92FF920E94F5034B015C0180EDC82EF0
:1008500087E0D82EE12CF12C0E94F5036819790964
:100860008A099B09683E734081059105A8F321E040
:10087000C21AD108E108F10888EE880E83E0981EBC
:10088000A11CB11CC114D104E104F10429F7FF90AB
:10089000EF90DF90CF90BF90AF909F908F90089592
:1008A0001F920F920FB60F9211242F933F938F93A5
:1008B0009F93AF93BF938091410290914202A09188
:1008C0004302B09144023091400223E0230F2D37C0
:1008D00058F50196A11DB11D20934002809341025D
:1008E00090934202A0934302B09344028091450248
:1008F00090914602A0914702B09148020196A11D35
:10090000B11D8093450290934602A0934702B09395
:100910004802BF91AF919F918F913F912F910F907E
:100920000FBE0F901F90189526E8230F0296A11D69
:10093000B11DD2CF789484B5826084BD84B58160C6
:1009400084BD85B5826085BD85B5816085BD80919A
:100950006E00816080936E00109281008091810012
:10096000826080938100809181008160809381000A
:10097000809180008160809380008091B1008460CC
:100980008093B1008091B00081608093B00080912D
:1009900091008260809391008091910081608093AA
:1009A0009100809190008160809390008091A100DF
:1009B00082608093A1008091A10081608093A1005A
:1009C0008091A00081608093A000809121018260CD
:1009D0008093210180912101816080932101809188
:1009E000200181608093200180917A00846080934F
:1009F0007A0080917A00826080937A0080917A00F8
:100A0000816080937A0080917A00806880937A0078
:100A10001092C100C8E2D2E01881229661E0812FD5
:100A20000E94C40361E0812F0E94960382E0C034DB
:100A3000D80791F761E08CE00E94C40360E08CE08D
:100A40000E949603C2E1D2E0ECE0CE2EE2E0DE2E80
:100A5000F6E0EF2EF2E0FF2E00E012E08881229611
:100A600060E00E94C403F6018081F2E0CF0ED11C49
:100A700060E00E94C403F7018081F2E0EF0EF11CF8
:100A800060E00E94C403F80180810E5F1F4F60E0A8
:100A90000E94C403F2E0C831DF0701F7C0E2D2E0F0
:100AA00000E212E078E1C72E72E0D72EF6018081D5
:100AB000F2E0CF0ED11C60E00E94C4038881229630
:100AC00060E00E94C4030C151D0581F760E085E11C
:100AD0000E94C40310924E0210924D0245E1442E32
:100AE000512C51E1652E712C6DE0A62EB12C30E118
:100AF000232E312C80904D0290904E0290924C0209
:100B000080924B028BE18816910408F026C0F40114
:100B10008827E257FA4F8F4F0C94EB09A905A905D6
:100B2000A905A905A905A905D605D605D605D9059E
:100B3000DE05DE05DE05E105E405E405E405E7057F
:100B4000EA05EA05EA05ED05A905D605DE05E40591
:100B5000EA0581E090E00E94AF02CFE4D2E008E233
:100B600012E068812296F80180810E5F1F4F0E947B
:100B7000960387E692E08C179D0799F728E2E22E0C
:100B800022E0F22E08E112E0F80180810E5F1F4F93
:100B90000E946D03EC01019719F1F6E0EF0EF11CD4
:100BA000C016D10689F7D0E0C0E020C082E090E016
:100BB000D2CF83E090E00E948901CFCF84E090E023
:100BC000FACF85E090E0F7CF86E090E0F4CF87E0C1
:100BD00090E0F1CF88E090E0EECF89E090E0EBCFBD
:100BE000F70180810E946D03892BB9F6D0934A02E8
:100BF000C093490285E10E946D038130910521F483
:100C000090934E0280934D0260E0219709F461E0D9
:100C10008CE00E949603FBE18F16910408F0C4C398
:100C2000F4018827E95EF94F8F4F0C94EB093206E7
:100C3000750607071A072D07420757078107B907E7
:100C4000D907DC070D084A08D9076A089B08D808A5
:100C5000D907F8082D096409D9078E09AF09B60923
:100C6000C009CA0986E20E946D03019739F486E142
:100C700090E090934E0280934D022FC087E20E9435
:100C80006D030197A1F388E20E946D03019779F348
:100C900089E20E946D03019751F3809112020E9434
:100CA0006D03019709F480C380910C020E946D03CB
:100CB000019709F479C3809106020E946D030197A0
:100CC00009F472C3809100020E946D03019709F438
:100CD0006BC310924E0210924D0280E090E0892B7F
:100CE00009F408CF0E94000002CF809116020E94F2
:100CF0006D03019709F46BC0809114020E946D038B
:100D0000019709F468C0809112020E946D0331E0DE
:100D100020E0019709F030E0E32EF22E80911002DE
:100D20000E946D0303E010E0019799F080910E029C
:100D30000E946D0302E010E0019759F080910C02CF
:100D40000E946D0331E020E0019709F030E0032FAD
:100D5000122F80910A020E946D03C3E0D0E0019738
:100D600099F0809108020E946D03C2E0D0E00197E3
:100D700059F0809106020E946D0331E020E0019756
:100D800009F030E0C32FD22F809104020E946D033E
:100D9000019729F1809102020E946D03019711F1E0
:100DA000809100020E946D0331E020E0019709F07C
:100DB00030E0832F922FE016F106BCF0EC16FD0612
:100DC000ECF0E816F906BCF082E090E052CF93E038
:100DD000E92EF12CA3CF82E0E82EF12C9FCF83E007
:100DE00090E0E9CF82E090E0E6CF0C171D0734F0E9
:100DF000081719074CF485E090E03BCFC817D907D6
:100E0000D4F384E090E035CF83E090E032CF80915E
:100E100016020E946D03019719F488E090E029CF33
:100E2000809114020E946D03019709F09FC087E032
:100E300090E01FCF809110020E946D03019719F47A
:100E40008CE090E016CF80910E020E946D03019716
:100E500009F0E0C08BE090E00CCF80910A020E9484
:100E60006D03019729F430924E0220924D0235CF46
:100E7000809108020E946D03019709F059C18FE02B
:100E800090E0F7CE809104020E946D03019719F45F
:100E900084E190E0EECE809102020E946D03E3E1D6
:100EA000F0E0019709F4D4C182E190E0E2CE87E25C
:100EB0000E946D03019711F188E20E946D03019772
:100EC000E9F089E20E946D030197C1F0809112025E
:100ED0000E946D03892B91F080910E020E946D0398
:100EE000019761F0809108020E946D03019731F033
:100EF000809102020E946D030197C1F589E090E0A4
:100F0000B8CE809112020E946D03892BB9F387E25B
:100F10000E946D03019791F388E20E946D0301978F
:100F200069F389E20E946D03019741F380911002F9
:100F30000E946D03019711F380910A020E946D03D4
:100F40000197E1F2809104020E946D030197B1F2D2
:100F5000809114020E946D03019709F468CF80917B
:100F600012020E946D03019709F0B7CE86E090E06F
:100F700080CE809112020E946D03892B09F4BECFAE
:100F800087E20E946D03019709F4B8CF88E20E94BE
:100F90006D03019709F4B2CF89E20E946D030197B6
:100FA00009F4ACCF809116020E946D03019781F67F
:100FB00034CF0E941A048DCE86E20E946D03019701
:100FC00009F4D9C188E20E946D03019709F4D3C1E5
:100FD00089E20E946D03019709F4CDC180910C0252
:100FE0000E946D03892B09F4C6C1809114020E94EE
:100FF0006D03019709F4BFC1809108020E946D033F
:10100000019709F4B8C1809102020E946D03019713
:1010100009F4B1C18AE090E02CCE80910C020E94CC
:101020006D03892B09F4A7C186E20E946D03019725
:1010300009F4A1C188E20E946D03019709F49BC1E4
:1010400089E20E946D03019709F495C1809116020F
:101050000E946D03019709F48EC180910A020E94DB
:101060006D03019709F487C1809104020E946D030A
:10107000019709F480C180910E020E946D030197CF
:1010800009F4E8CE80910C020E946D03019709F0EB
:1010900024CEC0CF80910C020E946D03892B09F4ED
:1010A0006AC186E20E946D03019709F464C188E277
:1010B0000E946D03019709F45EC189E20E946D03ED
:1010C000019709F458C1809110020E946D030197A5
:1010D00091F6B6CE86E20E946D03019709F455C1E0
:1010E00087E20E946D03019709F44FC189E20E94D3
:1010F0006D03019709F449C1809106020E946D03B6
:10110000892B09F442C1809114020E946D0301975A
:1011100009F43BC180910E020E946D03019709F40E
:1011200034C1809102020E946D03019709F42DC120
:101130008EE090E09ECD809106020E946D03892B87
:1011400009F423C186E20E946D03019709F41DC1D1
:1011500087E20E946D03019709F417C189E20E949A
:101160006D03019709F411C1809116020E946D036D
:10117000019709F40AC1809110020E946D03019742
:1011800009F403C1809104020E946D03019709F4E0
:10119000FCC0809108020E946D03019709F46FCE94
:1011A000809106020E946D03019709F096CDC0CF91
:1011B000809106020E946D03892B09F4E6C086E245
:1011C0000E946D03019709F4E0C087E20E946D035D
:1011D000019709F4DAC089E20E946D03019709F4CE
:1011E000D4C080910A020E946D03019791F63BCE14
:1011F00086E20E946D03019709F4D1C087E20E9444
:101200006D03019709F4CBC088E20E946D0301973A
:1012100009F4C5C0809100020E946D03892B09F476
:10122000BEC0809114020E946D03019709F4B7C0FB
:1012300080910E020E946D03019709F4B0C0809165
:1012400008020E946D03019709F4A9C0E2E1F0E0F1
:10125000F0934E02E0934D0240CD809100020E9437
:101260006D03892B09F49BC086E20E946D030197F0
:1012700009F495C087E20E946D03019709F48FC0BD
:1012800088E20E946D03019709F489C080911602DB
:101290000E946D03019709F482C0809110020E94A0
:1012A0006D03019709F47BC080910A020E946D03CF
:1012B000019709F474C0809102020E946D030197A6
:1012C00029F583E190E0D5CC809100020E946D0366
:1012D000892B09F464C086E20E946D03019709F42A
:1012E0005EC087E20E946D03019709F458C088E24E
:1012F0000E946D03019709F452C0809104020E947C
:101300006D03E4E1F0E00197B1F6A2CF8091000215
:101310000E946D03019709F0E0CC98CF86E20E940D
:101320006D03019719F487E190E0A3CC87E20E9456
:101330006D03019719F4E8E1F0E08ACF88E20E949A
:101340006D03019719F489E190E093CC89E20E9442
:101350006D03019709F0C1CCEAE1F0E079CF86E2B4
:101360000E946D03019709F0C9CDDDCF87E20E948D
:101370006D03019701F3B0924E02A0924D02ADCCE5
:1013800088E20E946D030197F1F270924E02609222
:101390004D02A3CC89E20E946D030197E9F25092BD
:1013A0004E0240924D0299CC81E090E062CC97FBD6
:1013B000072E16F4009407D077FD09D00E94F30998
:1013C00007FC05D03EF4909581959F4F0895709548
:1013D00061957F4F0895EE0FFF1F881F8BBF079009
:1013E000F691E02D1994AA1BBB1B51E107C0AA1F5F
:1013F000BB1FA617B70710F0A61BB70B881F991FB6
:101400005A95A9F780959095BC01CD010895F8945F
:02141000FFCF0C
:101412001F00200021001C001D001E0019001A00E0
:101422001B001600170018002200230024002500CC
:101432002600270028002900000001000200030006
:101442000400050006000700080009000A000B005E
:00000001FF
